{
  "abi": [
    {
      "inputs": [
        {
          "internalType": "uint256",
          "name": "_expiry",
          "type": "uint256"
        },
        {
          "internalType": "uint32",
          "name": "_levels",
          "type": "uint32"
        },
        {
          "internalType": "contract IHasher",
          "name": "_hasher",
          "type": "address"
        }
      ],
      "stateMutability": "nonpayable",
      "type": "constructor"
    },
    {
      "anonymous": false,
      "inputs": [
        {
          "indexed": false,
          "internalType": "address",
          "name": "to",
          "type": "address"
        },
        {
          "indexed": false,
          "internalType": "uint256",
          "name": "value",
          "type": "uint256"
        }
      ],
      "name": "Deposit",
      "type": "event"
    },
    {
      "anonymous": false,
      "inputs": [],
      "name": "Resolve",
      "type": "event"
    },
    {
      "anonymous": false,
      "inputs": [
        {
          "indexed": false,
          "internalType": "address",
          "name": "from",
          "type": "address"
        },
        {
          "indexed": false,
          "internalType": "bytes32",
          "name": "to",
          "type": "bytes32"
        },
        {
          "indexed": false,
          "internalType": "bytes32",
          "name": "value",
          "type": "bytes32"
        }
      ],
      "name": "Transfer",
      "type": "event"
    },
    {
      "anonymous": false,
      "inputs": [
        {
          "indexed": false,
          "internalType": "address",
          "name": "account",
          "type": "address"
        },
        {
          "indexed": false,
          "internalType": "uint256",
          "name": "value",
          "type": "uint256"
        }
      ],
      "name": "Withdraw",
      "type": "event"
    },
    {
      "inputs": [],
      "name": "FIELD_SIZE",
      "outputs": [
        {
          "internalType": "uint256",
          "name": "",
          "type": "uint256"
        }
      ],
      "stateMutability": "view",
      "type": "function"
    },
    {
      "inputs": [],
      "name": "deposit",
      "outputs": [],
      "stateMutability": "payable",
      "type": "function"
    },
    {
      "inputs": [
        {
          "internalType": "bytes32",
          "name": "_left",
          "type": "bytes32"
        },
        {
          "internalType": "bytes32",
          "name": "_right",
          "type": "bytes32"
        }
      ],
      "name": "hashLeftRight",
      "outputs": [
        {
          "internalType": "bytes32",
          "name": "",
          "type": "bytes32"
        }
      ],
      "stateMutability": "view",
      "type": "function"
    },
    {
      "inputs": [
        {
          "internalType": "bytes32",
          "name": "one",
          "type": "bytes32"
        },
        {
          "internalType": "bytes32",
          "name": "two",
          "type": "bytes32"
        },
        {
          "internalType": "bytes32",
          "name": "three",
          "type": "bytes32"
        }
      ],
      "name": "hashThree",
      "outputs": [
        {
          "internalType": "bytes32",
          "name": "",
          "type": "bytes32"
        }
      ],
      "stateMutability": "view",
      "type": "function"
    },
    {
      "inputs": [],
      "name": "hasher",
      "outputs": [
        {
          "internalType": "contract IHasher",
          "name": "",
          "type": "address"
        }
      ],
      "stateMutability": "view",
      "type": "function"
    },
    {
      "inputs": [],
      "name": "levels",
      "outputs": [
        {
          "internalType": "uint32",
          "name": "",
          "type": "uint32"
        }
      ],
      "stateMutability": "view",
      "type": "function"
    },
    {
      "inputs": [
        {
          "internalType": "bytes32",
          "name": "state",
          "type": "bytes32"
        },
        {
          "internalType": "bytes",
          "name": "proof",
          "type": "bytes"
        }
      ],
      "name": "resolve",
      "outputs": [],
      "stateMutability": "nonpayable",
      "type": "function"
    },
    {
      "inputs": [
        {
          "internalType": "bytes32",
          "name": "to",
          "type": "bytes32"
        },
        {
          "internalType": "bytes32",
          "name": "value",
          "type": "bytes32"
        }
      ],
      "name": "transfer",
      "outputs": [],
      "stateMutability": "payable",
      "type": "function"
    },
    {
      "inputs": [
        {
          "internalType": "address",
          "name": "account",
          "type": "address"
        },
        {
          "internalType": "uint256",
          "name": "value",
          "type": "uint256"
        },
        {
          "internalType": "bytes32[]",
          "name": "pathElements",
          "type": "bytes32[]"
        },
        {
          "internalType": "bool[]",
          "name": "pathIndices",
          "type": "bool[]"
        }
      ],
      "name": "withdraw",
      "outputs": [],
      "stateMutability": "nonpayable",
      "type": "function"
    }
  ],
  "bytecode": {
    "object": "0x60a060405234801561001057600080fd5b506040516123f53803806123f583398101604081905261002f916100c2565b606081901b6001600160601b0319166080526000805463ffffffff191663ffffffff8416179055604051610062906100b5565b604051809103906000f08015801561007e573d6000803e3d6000fd5b50600080546001600160a01b039290921664010000000002600160201b600160c01b03199092169190911790555050600455610117565b61159d80610e5883390190565b6000806000606084860312156100d6578283fd5b83519250602084015163ffffffff811681146100f0578283fd5b60408501519092506001600160a01b038116811461010c578182fd5b809150509250925092565b60805160601c610d1a61013e6000398061021852806102cf52806107245250610d1a6000f3fe6080604052600436106100865760003560e01c8063c79c2c2911610059578063c79c2c291461010d578063ca48e9c31461012d578063cb3636691461014d578063d0e30db01461016d578063ed33639f1461017557610086565b806338bf282e1461008b578063414a37ba146100c15780634deeb4bd146100d65780634ecf518b146100eb575b600080fd5b34801561009757600080fd5b506100ab6100a636600461092b565b610197565b6040516100b89190610a4e565b60405180910390f35b3480156100cd57600080fd5b506100ab61035f565b6100e96100e436600461092b565b610371565b005b3480156100f757600080fd5b5061010061042a565b6040516100b89190610ca2565b34801561011957600080fd5b506100e9610128366004610858565b610436565b34801561013957600080fd5b506100e9610148366004610977565b6104f8565b34801561015957600080fd5b506100ab61016836600461094c565b610650565b6100e961066d565b34801561018157600080fd5b5061018a610722565b6040516100b89190610ace565b6000600080516020610cc583398151915283106101cf5760405162461bcd60e51b81526004016101c690610b31565b60405180910390fd5b600080516020610cc583398151915282106101fc5760405162461bcd60e51b81526004016101c690610b66565b60405163f47d33b560e01b815283906000906001600160a01b037f0000000000000000000000000000000000000000000000000000000000000000169063f47d33b59061024f9085908590600401610c94565b604080518083038186803b15801561026657600080fd5b505afa15801561027a573d6000803e3d6000fd5b505050506040513d601f19601f8201168201806040525081019061029e91906109ee565b9092509050600080516020610cc583398151915284830860405163f47d33b560e01b81529092506001600160a01b037f0000000000000000000000000000000000000000000000000000000000000000169063f47d33b5906103069085908590600401610c94565b604080518083038186803b15801561031d57600080fd5b505afa158015610331573d6000803e3d6000fd5b505050506040513d601f19601f8201168201806040525081019061035591906109ee565b5095945050505050565b600080516020610cc583398151915281565b60045442106103925760405162461bcd60e51b81526004016101c690610c06565b60005460035463ffffffff90911660020a116103c05760405162461bcd60e51b81526004016101c690610bde565b60006103cd338484610650565b90506103db60015482610197565b60019081556003805490910190556040517f56ddf5dbd4137bafa88088fb239c1f88dd6450b2fe4d7857f4e8aa47ca5fa3fc9061041d90339086908690610a14565b60405180910390a1505050565b60005463ffffffff1681565b600061044b6001600160a01b03881687610197565b905061045a8186868686610746565b866001600160a01b03168660405161047190610a11565b60006040518083038185875af1925050503d80600081146104ae576040519150601f19603f3d011682016040523d82523d6000602084013e6104b3565b606091505b5050507f884edad9ce6fa2440d8a54cc123490eb96d2768479d49ff9c7366125a942436487876040516104e7929190610a35565b60405180910390a150505050505050565b60045442116105195760405162461bcd60e51b81526004016101c690610ae2565b60408051600280825260608201835260009260208301908036833701905050905060015460001c8160008151811061054d57fe5b6020026020010181815250508360001c8160018151811061056a57fe5b6020908102919091010152600054604051631e8e1e1360e01b81526401000000009091046001600160a01b031690631e8e1e13906105b090869086908690600401610a57565b60206040518083038186803b1580156105c857600080fd5b505afa1580156105dc573d6000803e3d6000fd5b505050506040513d601f19601f82011682018060405250810190610600919061090f565b61061c5760405162461bcd60e51b81526004016101c690610ba7565b60028490556040517f428109f4e40826c368b5d4c737381461b2753d0b7c568dd5103280062fa3aefd90600090a150505050565b600061066561065f8585610197565b83610197565b949350505050565b600454421061068e5760405162461bcd60e51b81526004016101c690610c06565b60005460035463ffffffff90911660020a116106bc5760405162461bcd60e51b81526004016101c690610bde565b60006106c9813334610650565b90506106d760015482610197565b60019081556003805490910190556040517fe1fffcc4923d04b559f4d29a8bfc6cda04eb5b0d3c460751c2402c5c5cc9109c906107179033903490610a35565b60405180910390a150565b7f000000000000000000000000000000000000000000000000000000000000000081565b8460005b60005463ffffffff90811690821610156107e55760008085858463ffffffff1681811061077357fe5b905060200201602081019061078891906108ec565b156107b05787878463ffffffff1681811061079f57fe5b9050602002013591508390506107cf565b83915087878463ffffffff168181106107c557fe5b9050602002013590505b6107d98282610197565b9350505060010161074a565b5060025481146108075760405162461bcd60e51b81526004016101c690610c51565b505050505050565b60008083601f840112610820578182fd5b50813567ffffffffffffffff811115610837578182fd5b602083019150836020808302850101111561085157600080fd5b9250929050565b60008060008060008060808789031215610870578182fd5b86356001600160a01b0381168114610886578283fd5b955060208701359450604087013567ffffffffffffffff808211156108a9578384fd5b6108b58a838b0161080f565b909650945060608901359150808211156108cd578384fd5b506108da89828a0161080f565b979a9699509497509295939492505050565b6000602082840312156108fd578081fd5b813561090881610cb3565b9392505050565b600060208284031215610920578081fd5b815161090881610cb3565b6000806040838503121561093d578182fd5b50508035926020909101359150565b600080600060608486031215610960578283fd5b505081359360208301359350604090920135919050565b60008060006040848603121561098b578283fd5b83359250602084013567ffffffffffffffff808211156109a9578384fd5b818601915086601f8301126109bc578384fd5b8135818111156109ca578485fd5b8760208285010111156109db578485fd5b6020830194508093505050509250925092565b60008060408385031215610a00578182fd5b505080516020909101519092909150565b90565b6001600160a01b039390931683526020830191909152604082015260600190565b6001600160a01b03929092168252602082015260400190565b90815260200190565b600060408252836040830152838560608401378060608584010152601f19601f85011682016060810160206060858403018186015281865180845260808501915082880194508593505b80841015610ac15784518252938201936001939093019290820190610aa1565b5098975050505050505050565b6001600160a01b0391909116815260200190565b6020808252602f908201527f54686520726f6c6c757020686173206e6f7420656e746572656420746865207260408201526e65736f6c7574696f6e20737461676560881b606082015260800190565b6020808252818101527f5f6c6566742073686f756c6420626520696e7369646520746865206669656c64604082015260600190565b60208082526021908201527f5f72696768742073686f756c6420626520696e7369646520746865206669656c6040820152601960fa1b606082015260800190565b60208082526019908201527f50726f6f6620766572696669636174696f6e206661696c656400000000000000604082015260600190565b6020808252600e908201526d149bdb1b1d5c081a5cc8199d5b1b60921b604082015260600190565b6020808252602b908201527f54686520726f6c6c75702068617320656e746572656420746865207265736f6c60408201526a7574696f6e20737461676560a81b606082015260800190565b60208082526023908201527f50726f766964656420726f6f7420646f6573206e6f74206d61746368207265736040820152621d5b1d60ea1b606082015260800190565b918252602082015260400190565b63ffffffff91909116815260200190565b8015158114610cc157600080fd5b5056fe30644e72e131a029b85045b68181585d2833e84879b9709143e1f593f0000001a26469706673582212201069a0e4b1a396fdb703899f1312bb826c60694ad72f89e01e0ce05029b1703864736f6c63430007060033608060405234801561001057600080fd5b5061157d806100206000396000f3fe608060405234801561001057600080fd5b506004361061002b5760003560e01c80631e8e1e1314610030575b600080fd5b61015a6004803603604081101561004657600080fd5b81019060208101813564010000000081111561006157600080fd5b82018360208201111561007357600080fd5b8035906020019184600183028401116401000000008311171561009557600080fd5b91908080601f01602080910402602001604051908101604052809392919081815260200183838082843760009201919091525092959493602081019350359150506401000000008111156100e857600080fd5b8201836020820111156100fa57600080fd5b8035906020019184602083028401116401000000008311171561011c57600080fd5b91908080602002602001604051908101604052809392919081815260200183836020028082843760009201919091525092955061016e945050505050565b604080519115158252519081900360200190f35b60006114ba565b600080600184846000805b82156101a2575092938183058581029091039350909181830290039081610180565b50505060018111156101b357600080fd5b505060008112156101c15783015b9392505050565b60405181602084028301815160208301925060005b8284101561020e578185526000805160206115288339815191528451830991506020850194506020840193506101dd565b61022660008051602061152883398151915283610175565b91506020850394506020840393508592505b8284111561027d5760008051602061152883398151915285518309905060008051602061152883398151915284518309818552601f1995860195909401939150610238565b5090915250505050565b60008051602061152883398151915281106102a6576000805260206000f35b50565b6103208151146102bd576000805260206000f35b6102cb610260820151610287565b6102d9610280820151610287565b6102e76102a0820151610287565b6102f56102c0820151610287565b6103036102e0820151610287565b610311610300820151610287565b6102a6610320820151610287565b60008060208501516102e085015260408501516103008501526020830151610320850152602080018301516103408501526040602001830151610360850152606060200183015161038085015260806020018301516103a085015260a06020018301516103c08501526000805160206115288339815191526101006102e0860120069050806020850152600080516020611528833981519152602080860120066040850152600080516020611528833981519152604060e085012006600085015260008051602061152883398151915260c061012085012006915081606085015260008051602061152883398151915282820960a0850152506000805160206115288339815191528182099050600080516020611528833981519152818209905060008051602061152883398151915281820990506000805160206115288339815191528182099050600080516020611528833981519152818209905060008051602061152883398151915281820990506000805160206115288339815191528182099050600080516020611528833981519152818209905060008051602061152883398151915281820990506000805160206115288339815191528182099050600080516020611528833981519152818209905060008051602061152883398151915281820990506000805160206115288339815191528182099050600080516020611528833981519152818209905060008051602061152883398151915281820990506000805160206115288339815191528182099050806080840152600080516020611528833981519152806001830301069050806102608401528061028084015260008051602061152883398151915260e0610260840120068060c085015260008051602061152883398151915281820991508160e0850152600080516020611528833981519152818309915081610100850152600080516020611528833981519152818309915081610120850152600080516020611528833981519152818309915081610140850152600080516020611528833981519152818309610160850152505060806101e0919091012060008051602061152883398151915290066101809091015250565b60016000805160206115288339815191528060008051602061152883398151915283606086015103010662010000096102a08301526000805160206115288339815191527eeeb2cb5981ed45649abebde081dcff16c8601de4347e7dd1628ba2daac43b7820990506000805160206115288339815191528060008051602061152883398151915283606086015103010662010000096102c08301526106f6600361028084016101c8565b61026082015160019150600080516020611528833981519152816102a0850151096102a08401526000805160206115288339815191527eeeb2cb5981ed45649abebde081dcff16c8601de4347e7dd1628ba2daac43b78309915060008051602061152883398151915280826102c08601510983096102c0840152505050565b60006000805160206115288339815191528060008051602061152883398151915260208601516102a0860151098303010690506000805160206115288339815191528060008051602061152883398151915260408601516102c086015109830301069050806101a0830152505050565b60008060006000805160206115288339815191526101a086015161032086015108925060008051602061152883398151915260208601516102c08601510991506000805160206115288339815191526102608501518308915060008051602061152883398151915260408601518308915060008051602061152883398151915260208601516102e086015109905060008051602061152883398151915261028085015182089050600080516020611528833981519152604086015182089050600080516020611528833981519152818309915060008051602061152883398151915260408601516102a086015108905060008051602061152883398151915281830991506000805160206115288339815191526103008501518309915060008051602061152883398151915260008601518309915060008051602061152883398151915260008601516102a0870151099050600080516020611528833981519152600086015182099050600080516020611528833981519152818308915050600080516020611528833981519152816000805160206115288339815191528401030691505060008051602061152883398151915261028084015182099050806101c0840152505050565b81518152602091820151910152565b6040518151815260208201516020820152825160408201526020830151606082015260408260808360066107d05a03fa9050806109ff576000805260206000f35b505050565b6000604051835181526020840151602082015284604082015260408160608360076107d05a03fa915081610a3c576000805260206000f35b825160408201526020830151606082015260408360808360066107d05a03fa91505080610a6d576000805260206000f35b50505050565b600060405183815284602082015285604082015260408160608360076107d05a03fa915081610aa6576000805260206000f35b825160408201526020830151606082015260408360808360066107d05a03fa91505080610ad7576000805260206000f35b5050505050565b600060405183815284602082015285604082015260408360608360076107d05a03fa91505080610ad7576000805260206000f35b6101e08201610b256101e08301826109af565b6109ff610180840151610220840183610a04565b600080610220840160008051602061152883398151915260c0860151610260860151099250610baa837f13a56a81d43e14771009deae54cc45d6d56e931956eec59c4e3b708b47d309537f21522d47f59de25c5c7c6c4f803c0b55dd81f7c7e8a92730429a6e8ba3f680b984610ade565b60008051602061152883398151915261028085015184099250610c0f837f20461de1f103f0c31b419f6242e45e388d555e125576276eb2f228f4a3bfbf3d7f1c87a0938ce4f10c9840c026f89f28e192a0fdeab9246f12825e2ea84f930c3a84610a73565b60008051602061152883398151915260c0860151610280860151099250610c78837f10656ff7d01362be5e3ea0867679c5f6751ab4d79067b31f9fccee1e9a68b3b67f2428a0aa080cf2d0c3d8c59a695e1568061aca74431ab70266e60b7d4b07438384610a73565b60008051602061152883398151915260c08601516102a0860151099250610ce1837f0f290dab9183c0845bce156f13d9d8a749990d493faa4b7cd32ecad9467ab1b47f21fc42d3f9c7751feb8b350e12b41830f2bdb174e002ddfa6ce94c61efc49dbb84610a73565b60c08501519250610d34837f1a176fff3312fb01844e784c9799c641e06814910e7a1cbf3d805f0ca742f0237f289bf871abbe931456b16f2e2d11dc71780d48c3d33521cc90953d02533baa4684610a73565b60008051602061152883398151915260a086015161026086015108925060008051602061152883398151915260408601518408925060008051602061152883398151915260a0860151600209915060008051602061152883398151915261028085015183089150600080516020611528833981519152604086015183089150600080516020611528833981519152828409925060008051602061152883398151915260a086015160030991506000805160206115288339815191526102a085015183089150600080516020611528833981519152604086015183089150600080516020611528833981519152828409925060008051602061152883398151915260008601518409925060008051602061152883398151915260c08601518409925060008051602061152883398151915260008601516102a087015109915060008051602061152883398151915260008601518309915060008051602061152883398151915260c086015183099150600080516020611528833981519152828408925060008051602061152883398151915261018086015184089250610edd8360e0860183610a04565b6000805160206115288339815191526102c08501516020870151099250600080516020611528833981519152610260850151840892506000805160206115288339815191526040860151840892506000805160206115288339815191526102e0850151602087015109915060008051602061152883398151915261028085015183089150600080516020611528833981519152604086015183089150600080516020611528833981519152828409925060008051602061152883398151915260008601518409925060008051602061152883398151915260c086015184099250600080516020611528833981519152602086015184099250600080516020611528833981519152610300850151840960008051602061152883398151915290810306925061104d837f0cc8187d81ce29d357ab4d3162ba5f02cb92eb9bef8db04493b3dc97f2df10877f2f5ff5cccdfc4b7c2b67865357b471a8cc27218c475654e529e080b3537ef6fe84610a73565b61105b6101208501826109be565b6080850151925061107183610160860183610a04565b6000805160206115288339815191528384099250611094836101a0860183610a04565b6110a660e08601516020860183610a04565b6110b96101008601516060860183610a04565b6110cc61012086015160a0860183610a04565b61111d6101408601517f2e84cb2f4775a90e0a8086f6fd5385db635c4750ec280dade4733db27b0014567f024623ba8113c6922f862be2c86c86d06f6bc0fffc8fb57759d535559ddd7c4e84610a73565b61116e6101608601517f17c8d31921265af95dbfabb68269a38f4919c01f19f0cee55d2aa45e636bfd077f293c0fe21640a472eddd9d700f80908f62676e1326541f621a4e2ecbfd68552084610a73565b6101c085015192506000805160206115288339815191528060c087015161032087015109840892506000805160206115288339815191528060e08701516102608701510984089250600080516020611528833981519152806101008701516102808701510984089250600080516020611528833981519152806101208701516102a08701510984089250600080516020611528833981519152806101408701516102c08701510984089250600080516020611528833981519152806101608701516102e087015109840892506000805160206115288339815191528061018087015161030087015109840860008051602061152883398151915290810306925061127c836002600184610a73565b60608501519250611292836101e0860183610a04565b60008051602061152883398151915260608601516101808701510992506000805160206115288339815191527eeeb2cb5981ed45649abebde081dcff16c8601de4347e7dd1628ba2daac43b784099250610ad783610220860183610a04565b60006040516101e0830151815260206101e08401015160208201527f26186a2d65ee4d2f9c9a5b91f86597d35f192cd120caf7e935d8443d1938e23d60408201527f30441fd1b5d3370482c42152a8899027716989a6996c2535bc9f7fee8aaef79e60608201527f1970ea81dd6992adfbc571effb03503adbbb6a857f578403c6c40e22d65b3c0260808201527f054793348f12c0cf5622c340573cb277586319de359ab9389778f689786b1e4860a082015261022083015160c08201526020610220840101517f30644e72e131a029b85045b68181585d97816a916871ca8d3c208c16d87cfd47817f30644e72e131a029b85045b68181585d97816a916871ca8d3c208c16d87cfd47030690508060e0830152507f198e9393920d483a7260bfb731fb5d25f1aa493335a9e71297e485b7aef312c26101008201527f1800deef121f1e76426a00665e5c4479674322d4f75edadd46debd5cd992f6ed6101208201527f090689d0585ff075ec9e99ad690c3395bc4b313370b38ef355acdadcd122975b6101408201527f12c85ea5db8c6deb4aab71808dcb408fe3d1e7690c43d37b4ce6cc0166fa7daa6101608201526020816101808360086107d05a03fa90511692915050565b6040516102e081016040526114ce846102a9565b6114d983828661031f565b6114e28161064c565b6114ec8382610775565b6114f681856107e5565b6115008185610b12565b61150a8185610b39565b611513816112f1565b6102e0820360405280600052505060206000f3fe30644e72e131a029b85045b68181585d2833e84879b9709143e1f593f0000001a2646970667358221220985f40bc68fb0eae974fa106efd6c26521af8238b4bc62b829bcb2dfe7a3677164736f6c63430007060033",
    "linkReferences": {}
  },
  "methodIdentifiers": {
    "FIELD_SIZE()": "414a37ba",
    "deposit()": "d0e30db0",
    "hashLeftRight(bytes32,bytes32)": "38bf282e",
    "hashThree(bytes32,bytes32,bytes32)": "cb363669",
    "hasher()": "ed33639f",
    "levels()": "4ecf518b",
    "resolve(bytes32,bytes)": "ca48e9c3",
    "transfer(bytes32,bytes32)": "4deeb4bd",
    "withdraw(address,uint256,bytes32[],bool[])": "c79c2c29"
  },
  "id": 11
}