{
  "abi": [
    {
      "inputs": [
        {
          "internalType": "uint256",
          "name": "_expiry",
          "type": "uint256"
        },
        {
          "internalType": "uint32",
          "name": "_levels",
          "type": "uint32"
        },
        {
          "internalType": "contract IHasher",
          "name": "_hasher",
          "type": "address"
        }
      ],
      "stateMutability": "nonpayable",
      "type": "constructor"
    },
    {
      "anonymous": false,
      "inputs": [
        {
          "indexed": false,
          "internalType": "address",
          "name": "to",
          "type": "address"
        },
        {
          "indexed": false,
          "internalType": "uint256",
          "name": "value",
          "type": "uint256"
        }
      ],
      "name": "Deposit",
      "type": "event"
    },
    {
      "anonymous": false,
      "inputs": [],
      "name": "Resolve",
      "type": "event"
    },
    {
      "anonymous": false,
      "inputs": [
        {
          "indexed": false,
          "internalType": "address",
          "name": "from",
          "type": "address"
        },
        {
          "indexed": false,
          "internalType": "bytes32",
          "name": "to",
          "type": "bytes32"
        },
        {
          "indexed": false,
          "internalType": "bytes32",
          "name": "value",
          "type": "bytes32"
        }
      ],
      "name": "Transfer",
      "type": "event"
    },
    {
      "anonymous": false,
      "inputs": [
        {
          "indexed": false,
          "internalType": "address",
          "name": "to",
          "type": "address"
        },
        {
          "indexed": false,
          "internalType": "uint256",
          "name": "value",
          "type": "uint256"
        }
      ],
      "name": "Withdraw",
      "type": "event"
    },
    {
      "inputs": [],
      "name": "FIELD_SIZE",
      "outputs": [
        {
          "internalType": "uint256",
          "name": "",
          "type": "uint256"
        }
      ],
      "stateMutability": "view",
      "type": "function"
    },
    {
      "inputs": [],
      "name": "deposit",
      "outputs": [],
      "stateMutability": "payable",
      "type": "function"
    },
    {
      "inputs": [],
      "name": "expiry",
      "outputs": [
        {
          "internalType": "uint256",
          "name": "",
          "type": "uint256"
        }
      ],
      "stateMutability": "view",
      "type": "function"
    },
    {
      "inputs": [
        {
          "internalType": "bytes32",
          "name": "_left",
          "type": "bytes32"
        },
        {
          "internalType": "bytes32",
          "name": "_right",
          "type": "bytes32"
        }
      ],
      "name": "hashLeftRight",
      "outputs": [
        {
          "internalType": "bytes32",
          "name": "",
          "type": "bytes32"
        }
      ],
      "stateMutability": "view",
      "type": "function"
    },
    {
      "inputs": [
        {
          "internalType": "bytes32",
          "name": "one",
          "type": "bytes32"
        },
        {
          "internalType": "bytes32",
          "name": "two",
          "type": "bytes32"
        },
        {
          "internalType": "bytes32",
          "name": "three",
          "type": "bytes32"
        }
      ],
      "name": "hashThree",
      "outputs": [
        {
          "internalType": "bytes32",
          "name": "",
          "type": "bytes32"
        }
      ],
      "stateMutability": "view",
      "type": "function"
    },
    {
      "inputs": [],
      "name": "hasher",
      "outputs": [
        {
          "internalType": "contract IHasher",
          "name": "",
          "type": "address"
        }
      ],
      "stateMutability": "view",
      "type": "function"
    },
    {
      "inputs": [
        {
          "internalType": "bytes32",
          "name": "state",
          "type": "bytes32"
        },
        {
          "internalType": "bytes",
          "name": "proof",
          "type": "bytes"
        }
      ],
      "name": "resolve",
      "outputs": [],
      "stateMutability": "nonpayable",
      "type": "function"
    },
    {
      "inputs": [
        {
          "internalType": "bytes32",
          "name": "to",
          "type": "bytes32"
        },
        {
          "internalType": "bytes32",
          "name": "value",
          "type": "bytes32"
        }
      ],
      "name": "transfer",
      "outputs": [],
      "stateMutability": "payable",
      "type": "function"
    },
    {
      "inputs": [
        {
          "internalType": "address",
          "name": "to",
          "type": "address"
        },
        {
          "internalType": "uint256",
          "name": "value",
          "type": "uint256"
        },
        {
          "internalType": "bytes32[]",
          "name": "pathElements",
          "type": "bytes32[]"
        },
        {
          "internalType": "bool[]",
          "name": "pathIndices",
          "type": "bool[]"
        }
      ],
      "name": "withdraw",
      "outputs": [],
      "stateMutability": "nonpayable",
      "type": "function"
    }
  ],
  "bytecode": {
    "object": "0x60a060405234801561001057600080fd5b5060405161248a38038061248a83398101604081905261002f916100b6565b606081901b6001600160601b0319166080526005805463ffffffff191663ffffffff8416179055604051610062906100a9565b604051809103906000f08015801561007e573d6000803e3d6000fd5b50600080546001600160a01b0319166001600160a01b0392909216919091179055505060045561010b565b6115dc80610eae83390190565b6000806000606084860312156100ca578283fd5b83519250602084015163ffffffff811681146100e4578283fd5b60408501519092506001600160a01b0381168114610100578182fd5b809150509250925092565b60805160601c610d7c6101326000398061020b52806102c252806107555250610d7c6000f3fe6080604052600436106100865760003560e01c8063ca48e9c311610059578063ca48e9c31461010b578063cb3636691461012b578063d0e30db01461014b578063e184c9be14610153578063ed33639f1461016857610086565b806338bf282e1461008b578063414a37ba146100c15780634deeb4bd146100d6578063c79c2c29146100eb575b600080fd5b34801561009757600080fd5b506100ab6100a636600461095c565b61018a565b6040516100b89190610a7f565b60405180910390f35b3480156100cd57600080fd5b506100ab610352565b6100e96100e436600461095c565b610364565b005b3480156100f757600080fd5b506100e9610106366004610889565b61041d565b34801561011757600080fd5b506100e96101263660046109a8565b61052a565b34801561013757600080fd5b506100ab61014636600461097d565b61067b565b6100e9610698565b34801561015f57600080fd5b506100ab61074d565b34801561017457600080fd5b5061017d610753565b6040516100b89190610aff565b6000600080516020610d2783398151915283106101c25760405162461bcd60e51b81526004016101b990610ba4565b60405180910390fd5b600080516020610d2783398151915282106101ef5760405162461bcd60e51b81526004016101b990610bd9565b60405163f47d33b560e01b815283906000906001600160a01b037f0000000000000000000000000000000000000000000000000000000000000000169063f47d33b5906102429085908590600401610d07565b604080518083038186803b15801561025957600080fd5b505afa15801561026d573d6000803e3d6000fd5b505050506040513d601f19601f820116820180604052508101906102919190610a1f565b9092509050600080516020610d2783398151915284830860405163f47d33b560e01b81529092506001600160a01b037f0000000000000000000000000000000000000000000000000000000000000000169063f47d33b5906102f99085908590600401610d07565b604080518083038186803b15801561031057600080fd5b505afa158015610324573d6000803e3d6000fd5b505050506040513d601f19601f820116820180604052508101906103489190610a1f565b5095945050505050565b600080516020610d2783398151915281565b60045442106103855760405162461bcd60e51b81526004016101b990610c79565b60055460035463ffffffff90911660020a116103b35760405162461bcd60e51b81526004016101b990610c51565b60006103c033848461067b565b90506103ce6001548261018a565b60019081556003805490910190556040517f56ddf5dbd4137bafa88088fb239c1f88dd6450b2fe4d7857f4e8aa47ca5fa3fc9061041090339086908690610a45565b60405180910390a1505050565b60006104326001600160a01b0388168761018a565b60008181526006602052604090205490915060ff16156104645760405162461bcd60e51b81526004016101b990610b13565b6104718186868686610777565b60008181526006602052604090819020805460ff19166001179055516001600160a01b0388169087906104a390610a42565b60006040518083038185875af1925050503d80600081146104e0576040519150601f19603f3d011682016040523d82523d6000602084013e6104e5565b606091505b5050507f884edad9ce6fa2440d8a54cc123490eb96d2768479d49ff9c7366125a94243648787604051610519929190610a66565b60405180910390a150505050505050565b600454421161054b5760405162461bcd60e51b81526004016101b990610b55565b60408051600280825260608201835260009260208301908036833701905050905060015460001c8160008151811061057f57fe5b6020026020010181815250508360001c8160018151811061059c57fe5b6020908102919091010152600054604051631e8e1e1360e01b81526001600160a01b0390911690631e8e1e13906105db90869086908690600401610a88565b60206040518083038186803b1580156105f357600080fd5b505afa158015610607573d6000803e3d6000fd5b505050506040513d601f19601f8201168201806040525081019061062b9190610940565b6106475760405162461bcd60e51b81526004016101b990610c1a565b60028490556040517f428109f4e40826c368b5d4c737381461b2753d0b7c568dd5103280062fa3aefd90600090a150505050565b600061069061068a858561018a565b8361018a565b949350505050565b60045442106106b95760405162461bcd60e51b81526004016101b990610c79565b60055460035463ffffffff90911660020a116106e75760405162461bcd60e51b81526004016101b990610c51565b60006106f481333461067b565b90506107026001548261018a565b60019081556003805490910190556040517fe1fffcc4923d04b559f4d29a8bfc6cda04eb5b0d3c460751c2402c5c5cc9109c906107429033903490610a66565b60405180910390a150565b60045481565b7f000000000000000000000000000000000000000000000000000000000000000081565b8460005b60055463ffffffff90811690821610156108165760008085858463ffffffff168181106107a457fe5b90506020020160208101906107b9919061091d565b156107e15787878463ffffffff168181106107d057fe5b905060200201359150839050610800565b83915087878463ffffffff168181106107f657fe5b9050602002013590505b61080a828261018a565b9350505060010161077b565b5060025481146108385760405162461bcd60e51b81526004016101b990610cc4565b505050505050565b60008083601f840112610851578182fd5b50813567ffffffffffffffff811115610868578182fd5b602083019150836020808302850101111561088257600080fd5b9250929050565b600080600080600080608087890312156108a1578182fd5b86356001600160a01b03811681146108b7578283fd5b955060208701359450604087013567ffffffffffffffff808211156108da578384fd5b6108e68a838b01610840565b909650945060608901359150808211156108fe578384fd5b5061090b89828a01610840565b979a9699509497509295939492505050565b60006020828403121561092e578081fd5b813561093981610d15565b9392505050565b600060208284031215610951578081fd5b815161093981610d15565b6000806040838503121561096e578182fd5b50508035926020909101359150565b600080600060608486031215610991578283fd5b505081359360208301359350604090920135919050565b6000806000604084860312156109bc578283fd5b83359250602084013567ffffffffffffffff808211156109da578384fd5b818601915086601f8301126109ed578384fd5b8135818111156109fb578485fd5b876020828501011115610a0c578485fd5b6020830194508093505050509250925092565b60008060408385031215610a31578182fd5b505080516020909101519092909150565b90565b6001600160a01b039390931683526020830191909152604082015260600190565b6001600160a01b03929092168252602082015260400190565b90815260200190565b600060408252836040830152838560608401378060608584010152601f19601f85011682016060810160206060858403018186015281865180845260808501915082880194508593505b80841015610af25784518252938201936001939093019290820190610ad2565b5098975050505050505050565b6001600160a01b0391909116815260200190565b60208082526022908201527f54686973206163636f756e742068617320616c726561647920776974686472616040820152613bb760f11b606082015260800190565b6020808252602f908201527f54686520726f6c6c757020686173206e6f7420656e746572656420746865207260408201526e65736f6c7574696f6e20737461676560881b606082015260800190565b6020808252818101527f5f6c6566742073686f756c6420626520696e7369646520746865206669656c64604082015260600190565b60208082526021908201527f5f72696768742073686f756c6420626520696e7369646520746865206669656c6040820152601960fa1b606082015260800190565b60208082526019908201527f50726f6f6620766572696669636174696f6e206661696c656400000000000000604082015260600190565b6020808252600e908201526d149bdb1b1d5c081a5cc8199d5b1b60921b604082015260600190565b6020808252602b908201527f54686520726f6c6c75702068617320656e746572656420746865207265736f6c60408201526a7574696f6e20737461676560a81b606082015260800190565b60208082526023908201527f50726f766964656420726f6f7420646f6573206e6f74206d61746368207265736040820152621d5b1d60ea1b606082015260800190565b918252602082015260400190565b8015158114610d2357600080fd5b5056fe30644e72e131a029b85045b68181585d2833e84879b9709143e1f593f0000001a2646970667358221220ba9194b5a24695ac6b510aa4710b71cdbcb58a2fdbe833c045e2b2ac0e3825f464736f6c63430007060033608060405234801561001057600080fd5b506115bc806100206000396000f3fe608060405234801561001057600080fd5b506004361061002b5760003560e01c80631e8e1e1314610030575b600080fd5b61015a6004803603604081101561004657600080fd5b81019060208101813564010000000081111561006157600080fd5b82018360208201111561007357600080fd5b8035906020019184600183028401116401000000008311171561009557600080fd5b91908080601f01602080910402602001604051908101604052809392919081815260200183838082843760009201919091525092959493602081019350359150506401000000008111156100e857600080fd5b8201836020820111156100fa57600080fd5b8035906020019184602083028401116401000000008311171561011c57600080fd5b91908080602002602001604051908101604052809392919081815260200183836020028082843760009201919091525092955061016e945050505050565b604080519115158252519081900360200190f35b60006114f9565b600080600184846000805b82156101a2575092938183058581029091039350909181830290039081610180565b50505060018111156101b357600080fd5b505060008112156101c15783015b9392505050565b60405181602084028301815160208301925060005b8284101561020e578185526000805160206115678339815191528451830991506020850194506020840193506101dd565b61022660008051602061156783398151915283610175565b91506020850394506020840393508592505b8284111561027d5760008051602061156783398151915285518309905060008051602061156783398151915284518309818552601f1995860195909401939150610238565b5090915250505050565b60008051602061156783398151915281106102a6576000805260206000f35b50565b6103208151146102bd576000805260206000f35b6102cb610260820151610287565b6102d9610280820151610287565b6102e76102a0820151610287565b6102f56102c0820151610287565b6103036102e0820151610287565b610311610300820151610287565b6102a6610320820151610287565b60008060208501516102e085015260408501516103008501526020830151610320850152602080018301516103408501526040602001830151610360850152606060200183015161038085015260806020018301516103a085015260a06020018301516103c08501526000805160206115678339815191526101006102e0860120069050806020850152600080516020611567833981519152602080860120066040850152600080516020611567833981519152604060e085012006600085015260008051602061156783398151915260c061012085012006915081606085015260008051602061156783398151915282820960a0850152506000805160206115678339815191528182099050600080516020611567833981519152818209905060008051602061156783398151915281820990506000805160206115678339815191528182099050600080516020611567833981519152818209905060008051602061156783398151915281820990506000805160206115678339815191528182099050600080516020611567833981519152818209905060008051602061156783398151915281820990506000805160206115678339815191528182099050600080516020611567833981519152818209905060008051602061156783398151915281820990506000805160206115678339815191528182099050600080516020611567833981519152818209905060008051602061156783398151915281820990506000805160206115678339815191528182099050600080516020611567833981519152818209905060008051602061156783398151915281820990506000805160206115678339815191528182099050806080840152600080516020611567833981519152806001830301069050806102608401528061028084015260008051602061156783398151915260e0610260840120068060c085015260008051602061156783398151915281820991508160e0850152600080516020611567833981519152818309915081610100850152600080516020611567833981519152818309915081610120850152600080516020611567833981519152818309915081610140850152600080516020611567833981519152818309610160850152505060806101e0919091012060008051602061156783398151915290066101809091015250565b60016000805160206115678339815191528060008051602061156783398151915283606086015103010662080000096102a08301526000805160206115678339815191527f2260e724844bca5251829353968e4915305258418357473a5c1d597f613f6cbd820990506000805160206115678339815191528060008051602061156783398151915283606086015103010662080000096102c0830152610733600361028084016101c8565b61026082015160019150600080516020611567833981519152816102a0850151096102a08401526000805160206115678339815191527f2260e724844bca5251829353968e4915305258418357473a5c1d597f613f6cbd8309915060008051602061156783398151915280826102c08601510983096102c0840152505050565b60006000805160206115678339815191528060008051602061156783398151915260208601516102a0860151098303010690506000805160206115678339815191528060008051602061156783398151915260408601516102c086015109830301069050806101a0830152505050565b60008060006000805160206115678339815191526101a086015161032086015108925060008051602061156783398151915260208601516102c08601510991506000805160206115678339815191526102608501518308915060008051602061156783398151915260408601518308915060008051602061156783398151915260208601516102e086015109905060008051602061156783398151915261028085015182089050600080516020611567833981519152604086015182089050600080516020611567833981519152818309915060008051602061156783398151915260408601516102a086015108905060008051602061156783398151915281830991506000805160206115678339815191526103008501518309915060008051602061156783398151915260008601518309915060008051602061156783398151915260008601516102a0870151099050600080516020611567833981519152600086015182099050600080516020611567833981519152818308915050600080516020611567833981519152816000805160206115678339815191528401030691505060008051602061156783398151915261028084015182099050806101c0840152505050565b81518152602091820151910152565b6040518151815260208201516020820152825160408201526020830151606082015260408260808360066107d05a03fa905080610a3d576000805260206000f35b505050565b6000604051835181526020840151602082015284604082015260408160608360076107d05a03fa915081610a7a576000805260206000f35b825160408201526020830151606082015260408360808360066107d05a03fa91505080610aab576000805260206000f35b50505050565b600060405183815284602082015285604082015260408160608360076107d05a03fa915081610ae4576000805260206000f35b825160408201526020830151606082015260408360808360066107d05a03fa91505080610b15576000805260206000f35b5050505050565b600060405183815284602082015285604082015260408360608360076107d05a03fa91505080610b15576000805260206000f35b6101e08201610b636101e08301826109ed565b610a3d610180840151610220840183610a42565b600080610220840160008051602061156783398151915260c0860151610260860151099250610be8837f1aea51a1bba309a2e9fa2da82ac9bb14350e94423f6919145b2f0af828bda0487f2652da870c03e5aceeabd3b014b3076fa9ff30087d82b61a80da183c1ad92e4984610b1c565b60008051602061156783398151915261028085015184099250610c4d837f08588b31b3dbc50277d03f20efaf77370c4ce5b0c39113fae9cc0fcde5a6a9887f2f0368c4da93fd21b37b3e119be5aad8d23f1adf9c1310299f625eec3cef138584610ab1565b60008051602061156783398151915260c0860151610280860151099250610cb6837f12544a89deeb9eda2f1364b2cc00f9246d1e6061fd134bb8f31e0693e48905467f0c842ba84805e092579f56ab7bd5db432a0506563371a2fee598f6fa43e898d184610ab1565b60008051602061156783398151915260c08601516102a0860151099250610d1f837f0f84dbcb0546bbcb0f1c2a4a00fd33c9533df06dc3aa853b5649c24cb3360ae67f1238bef0bb950e7a703c282c67a17034ea6eaa0e16f610fb13647f0ea314320e84610ab1565b60c08501519250610d72837f2d4e4cb3e805eca2ba410abf922d63e0e162cb5b4e7f7307e5acbd590ad13e077f1616e54640ca06bf5c8e09099077ee7313c6abef04e5d04c1d8d72256172153584610ab1565b60008051602061156783398151915260a086015161026086015108925060008051602061156783398151915260408601518408925060008051602061156783398151915260a0860151600209915060008051602061156783398151915261028085015183089150600080516020611567833981519152604086015183089150600080516020611567833981519152828409925060008051602061156783398151915260a086015160030991506000805160206115678339815191526102a085015183089150600080516020611567833981519152604086015183089150600080516020611567833981519152828409925060008051602061156783398151915260008601518409925060008051602061156783398151915260c08601518409925060008051602061156783398151915260008601516102a087015109915060008051602061156783398151915260008601518309915060008051602061156783398151915260c086015183099150600080516020611567833981519152828408925060008051602061156783398151915261018086015184089250610f1b8360e0860183610a42565b6000805160206115678339815191526102c08501516020870151099250600080516020611567833981519152610260850151840892506000805160206115678339815191526040860151840892506000805160206115678339815191526102e0850151602087015109915060008051602061156783398151915261028085015183089150600080516020611567833981519152604086015183089150600080516020611567833981519152828409925060008051602061156783398151915260008601518409925060008051602061156783398151915260c086015184099250600080516020611567833981519152602086015184099250600080516020611567833981519152610300850151840960008051602061156783398151915290810306925061108b837f16a30a0a56477ce5dbd583774038350c637baa0cc27968664451b2614aef44a87f2acc6df3b7ae5ee7daead23adea365bc23f6dd346efa446f9f56510706d3d7db84610ab1565b6110996101208501826109fc565b608085015192506110af83610160860183610a42565b60008051602061156783398151915283840992506110d2836101a0860183610a42565b6110e460e08601516020860183610a42565b6110f76101008601516060860183610a42565b61110a61012086015160a0860183610a42565b61115b6101408601517f2d886abdc645de3daf8f27c4cf9ec5ac8825f15b87d99be2ab6074bfd1d335b87f136f39202867877936ad635e0dff864668de2bf37ee35dbaf39a8f7a8b07620184610ab1565b6111ac6101608601517f0d7ef7540b7af6c1700b095451dc4553dc83c9a8e0c12c7d0ff121467810f5aa7f16195f8f551d1f7855febd0c575aad2043bd4dae566b61e93c3eab0e9cba7f8984610ab1565b6101c085015192506000805160206115678339815191528060c087015161032087015109840892506000805160206115678339815191528060e08701516102608701510984089250600080516020611567833981519152806101008701516102808701510984089250600080516020611567833981519152806101208701516102a08701510984089250600080516020611567833981519152806101408701516102c08701510984089250600080516020611567833981519152806101608701516102e08701510984089250600080516020611567833981519152806101808701516103008701510984086000805160206115678339815191529081030692506112ba836002600184610ab1565b606085015192506112d0836101e0860183610a42565b60008051602061156783398151915260608601516101808701510992506000805160206115678339815191527f2260e724844bca5251829353968e4915305258418357473a5c1d597f613f6cbd84099250610b1583610220860183610a42565b60006040516101e0830151815260206101e08401015160208201527f26186a2d65ee4d2f9c9a5b91f86597d35f192cd120caf7e935d8443d1938e23d60408201527f30441fd1b5d3370482c42152a8899027716989a6996c2535bc9f7fee8aaef79e60608201527f1970ea81dd6992adfbc571effb03503adbbb6a857f578403c6c40e22d65b3c0260808201527f054793348f12c0cf5622c340573cb277586319de359ab9389778f689786b1e4860a082015261022083015160c08201526020610220840101517f30644e72e131a029b85045b68181585d97816a916871ca8d3c208c16d87cfd47817f30644e72e131a029b85045b68181585d97816a916871ca8d3c208c16d87cfd47030690508060e0830152507f198e9393920d483a7260bfb731fb5d25f1aa493335a9e71297e485b7aef312c26101008201527f1800deef121f1e76426a00665e5c4479674322d4f75edadd46debd5cd992f6ed6101208201527f090689d0585ff075ec9e99ad690c3395bc4b313370b38ef355acdadcd122975b6101408201527f12c85ea5db8c6deb4aab71808dcb408fe3d1e7690c43d37b4ce6cc0166fa7daa6101608201526020816101808360086107d05a03fa90511692915050565b6040516102e0810160405261150d846102a9565b61151883828661031f565b61152181610688565b61152b83826107b3565b6115358185610823565b61153f8185610b50565b6115498185610b77565b61155281611330565b6102e0820360405280600052505060206000f3fe30644e72e131a029b85045b68181585d2833e84879b9709143e1f593f0000001a264697066735822122005049a4f085d4acb95053c2ae2f3b77f8717283d486d4ded702351418254e31764736f6c63430007060033",
    "linkReferences": {}
  },
  "methodIdentifiers": {
    "FIELD_SIZE()": "414a37ba",
    "deposit()": "d0e30db0",
    "expiry()": "e184c9be",
    "hashLeftRight(bytes32,bytes32)": "38bf282e",
    "hashThree(bytes32,bytes32,bytes32)": "cb363669",
    "hasher()": "ed33639f",
    "resolve(bytes32,bytes)": "ca48e9c3",
    "transfer(bytes32,bytes32)": "4deeb4bd",
    "withdraw(address,uint256,bytes32[],bool[])": "c79c2c29"
  },
  "id": 11
}